:02000000ff00ff
:080002004c6174746963650030
:17000a00694345637562653220323032302e31322e32373934330071
:16002100506172743a2069434534304858314b2d56513130300002
:1b003700446174653a204a756e20313520323032342031353a32393a31320073
:0200520000ffad
:040054007eaa997e69
:02005800510055
:02005a0001059e
:03005c00920020ef
:03005f0062014bf0
:0300620072009099
:0300650082000016
:02006800110085
:02006a00010192
:20006c00000000000000000000000000000000000000000000000000000000000000000074
:09008c000000000000000000006b
:2000950000000000000000000000000000000000000000000000000000000000000000004b
:0a00b5000000000000000000000041
:2000bf00000000000000000000000000000000000000000000000000000000000000000021
:0900df0000000000000000000018
:2000e8000000000000000000000000000000000000000000000000000000000000000000f8
:0a01080000000000000000000000ed
:200112000000000000000000000000000000000000000000000000000000000000000000cd
:09013200000000000000000000c4
:20013b000000000000000000000000000000000000000000000000000000000000000000a4
:0a015b00000000000000000000009a
:200165000000000000040000000000001000000000000040000000001000000000000040d6
:0901850000000000000100000070
:20018e00000000000000000000000000000000000000000000000000000000000000000051
:0a01ae000000000000000000000047
:2001b800000000000004000000000000100000000000004000000000100000000000004083
:0901d8000000000000010000001d
:2001e1000000000000000000000000000000000000000000000000000000000000000000fe
:0a02010000000000000000000000f3
:20020b000000000000000000000000000000000000000000000000000000000000000000d3
:09022b00000000000000000000ca
:200234000000000000000000000000000000000000000000000000000000000000000000aa
:0a02540000000000000000000000a0
:20025e00000000000000000000000000000000000000000000000000000000000000000080
:09027e0000000000000000000077
:20028700000000000000000000000000000000000000000000000000000000000000000057
:0a02a700000000000000000000004d
:2002b10000000000000000000000000000000000000000000000000000000000000000002d
:0902d10000000000000000000024
:2002da00000000000000000000000000000000000000000000000000000000000000000004
:0a02fa0000000000000000000000fa
:200304000000000000000000000000000000000000000000000000000000000000000000d9
:09032400000000000000000000d0
:20032d00000000000000000000000000000000000040000000000000000000000000000070
:0a034d0000000000000000000000a6
:20035700000000000000000000000000000000000000000000000000000000000000000086
:090377000000000000000000007d
:2003800000000000000000000000000000000000000000000000000000000000000000005d
:0a03a0000000000000000000000053
:2003aa00000000000000000000000000000000000000000000000000000000000000000033
:0903ca000000000000000000002a
:2003d30000000000000000000000000000000000000000000000000000000000000000000a
:0a03f3000000000000000000000000
:2003fd000002000000000000000000000000000000000000000000000000000000000000de
:09041d00000000000000000000d6
:200426000000000000000000000000000000000000000000000000000000000000000000b6
:0a04460000000000000000000000ac
:2004500000000000000000000000000000000000000000000000000000000000000000008c
:0904700000000000000000000083
:20047900000020000000000000000000000000000000000000000000000000000000000043
:0a0499000000000000000000000059
:2004a300000000000000000000000000000000000000000000000000000000000000000039
:0904c30000000000000000000030
:2004cc00000000000000000000000000000000000000000000000000000000000000000010
:0a04ec000000000000000000000006
:2004f6000000000000000000000000000000000000000000000000000000000000000000e6
:09051600000000000000000000dc
:20051f000000000000000000000000000000000000000000000000000000000000000000bc
:0a053f0000000000000000000000b2
:20054900000000000000000000000000000000000000000000000000000000000000000092
:0905690000000000000000000089
:20057200000000000000000000000000000000000000000000000000000000000000000069
:0a059200000000000000000000005f
:20059c0000000000000000000000000000000000000000000000000000000000000000003f
:0905bc0000000000000000000036
:2005c500000000000000000000000000000000000000000000000000000000000000000016
:0a05e500000000000000000000000c
:2005ef000000000000000000000000000000000000000000000000000000000000000000ec
:09060f00000000000000000000e2
:200618000000000000000000000000000000000000000000000000000000000000000000c2
:0a06380000000000000000000000b8
:20064200000000000000000000000000000000000000000000000000000000000000000098
:090662000000000000000000008f
:20066b0000000000000000000000000000000000000000000000000000000000000000006f
:0a068b000000000000000000000065
:20069500000200000000000000000000000000000000000000000000000000000000000043
:0906b5000000000000000000003c
:2006be0000000000000000000000000000000000000000000000000000000000000000001c
:0a06de000000000000000000000012
:2006e8000000000000000000000000000000000000000000000000000000000000000000f2
:09070800000000000000000000e8
:200711000000200000000000000000000000000000000000000000000000000000000000a8
:0a07310000000000000000000000be
:20073b0000000000000000000000000000000000000000000000000000000000000000009e
:09075b0000000000000000000095
:20076400000000000000000000000000000000000000000000000000000000000000000075
:0a078400000000000000000000006b
:20078e0000000000000000000000000000000000000000000000000000000000000000004b
:0907ae0000000000000000000042
:2007b700000000000000000000000000000000000000000000000000000000000000000022
:0a07d7000000000000000000000018
:2007e1000000000000000000000000000000000000000000000000000000000000000000f8
:09080100000000000000000000ee
:20080a000000000000000000000000000000000000000000000000000000000000000000ce
:0a082a0000000000000000000000c4
:200834000000000000000000000000000000000000000000000000000000000000000000a4
:090854000000000000000000009b
:20085d0000000000000000000000000000000000004000000000000000000000000000003b
:0a087d000000000000000000000071
:20088700000000000000000000000000000000000000000000000000000000000000000051
:0908a70000000000000000000048
:2008b000000000000000000000000000000000000000000000000000000000000000000028
:0a08d000000000000000000000001e
:2008da000000000000000000000000000000000000000000000000000000000000000000fe
:0908fa00000000000000000000f5
:200903000000000000000000000000000000000000000000000000000000000000000000d4
:0a09230000000000000000000000ca
:20092d000002000000000000000000000000000000000000000000000000000000000000a8
:09094d00000000000000000000a1
:20095600000000000000000000000000000000000000000000000000000000000000000081
:0a0976000000000000000000000077
:20098000000000000000000000000000000000000000000000000000000000000000000057
:0909a0000000000000000000004e
:2009a90000002000000000000000000000000000000000000000000000000000000000000e
:0a09c9000000000000000000000024
:2009d300000000000000000000000000000000000000000000000000000000000000000004
:0909f300000000000000000000fb
:2009fc000000000000000000000000000000000000000000000000000000000000000000db
:0a0a1c0000000000000000000000d0
:200a26000000000000000000000000000000000000000000000000000000000000000000b0
:090a4600000000000000000000a7
:200a4f00000000000000000000000000000000000000000000000000000000000000000087
:0a0a6f00000000000000000000007d
:200a790000000000000000000000000000000000000000000000000000000000000000005d
:090a990000000000000000000054
:200aa200000000000000000000000000000000000000000000000000000000000000000034
:0a0ac200000000000000000000002a
:200acc00000000000000000000000000000000000000000000000200000000000000007098
:090aec00402000000000ea9640e1
:200af50000000000000000000000000000000000000000000000001c0000000008000000bd
:0a0b15003400002000000209610016
:200b1f000000000000000000000000000000000000000000000000000000000080000072c4
:090b3f003c30020000000000003f
:200b480000000000000000000000000000000000000000000000000000000000200010005d
:0a0b6800003c008000400000000087
:200b72000000000000000000000000000000000000000000000000000000000000001952f8
:090b92003c3000002000000000ce
:200b9b000000000000000000000000000000000000000000000000000000000000000080ba
:0a0bbb00803c000000400000000034
:200bc500000200000000000000100000000000000000000000001400000000030001815213
:090be5003c380c00000000000087
:200bee000000000000000000000100000000000000000000000000800000000028000080be
:0a0c0e00803c00a000000000000080
:200c1800000000000000000000000000000000000000000000000000000000000000007a42
:090c38003c300000000000000047
:200c4100000020000000000000000000000000000000000000000000000000000000000073
:0a0c6100003c00000000000000004d
:200c6b0000000000000000000000000000000000000000000000016044e800000000015a81
:090c8b003c300000007000000084
:200c94000000000000000000000000000000000000000000000000002bce0000000000d077
:0a0cb400003c0000000400000000f6
:200cbe000000000000000000000000000000000000000000000001606ff080000009805af3
:090cde003c3000000000000000a1
:200ce7000000000000000000000000000000000000000000000000142acf00000000500090
:0a0d0700803c000000000000000026
:200d1100000000000000000000000000000000000000000000000206800000010008187a9f
:090d31003c300400000000000049
:200d3a00000000000000000000000000000000000000000000000014000000001000100065
:0a0d5a00803c004000000000000093
:200d64000000000000000000000000000000000000000000000000000000000000000072fd
:090d84003c3000000000000000fa
:200d8d0000000080000000000000000000000000004000000002000000000000080000007c
:0a0dad00003c1020000000000000d0
:200db70000000000000000000000000000000000000000000000000000000000800000722a
:090dd7003c3000000000000000a7
:200de00000000000000000000000000000000000000000000000000028000000200010009b
:0a0e0000003c0000000000000000ac
:200e0a000000000000000000000000000000000000000000000000003ff0800000001952ae
:090e2a003c300000000000000053
:200e330000000000000000000000000000000000000000000000000000ed00000000008032
:0a0e5300803c0000000000000000d9
:200e5d0000020000000000000000000000000000000000000000014037880023000181527c
:090e7d003c300000000000000000
:200e860000000000000000000000000000000000000000000000000002d0000028000080d2
:0a0ea600803c000000000000000086
:200eb000000000000000000000000000000000000000000000000006c00000000000007ae2
:090ed0003c3000000000000000ad
:200ed9000000200000000000000000000000000000000000000000002800000000000000b1
:0a0ef900003c0000000000000000b3
:200f0300000000000000000000000000000000000000000000000166000000000000005a0d
:090f23003c300000000000000059
:200f2c00000000000000000000000000000000000000000000000014280000000000000069
:0a0f4c00003c00000000000000005f
:200f5600000000000000000000000000000000000000000000000160000000000009805a37
:090f76003c300000000000000006
:200f7f000000008000000000000000000000000000000000000000000000000000001000c2
:0a0f9f00803c00000000000000008c
:200fa9000000000000000000000000000000000000000000000002004cf800010008187a47
:090fc9003c3000000000000000b3
:200fd2000000000000000000000000000000000000000000000000142aec000010001000b5
:0a0ff200803c000000000000000039
:200ffc0000000000000000000000000000000000000000000000006281ea00000000007296
:09101c003c30000000000000005f
:20102500000000000000000000000000000000000000000000000000034050080000000010
:0a104500003c100000000000000055
:20104f000000000000000000000000000000000000000000002000061da08020800000720c
:09106f003c30000000000000000c
:201078000000000000000000000000000000000000000000000800004010080020001000c8
:0a109800003c000000000000000012
:2010a200000000000000000000000000000000000000000000000002968bc02000001952c0
:0910c2003c3000000000000000b9
:2010cb0000000000000000000000000000000000000000000000000043d03c010000008035
:0a10eb00803c00000000000000003f
:2010f500000200000000000000000000000000000000000000000202acc800030001985273
:091115003c300000000000000065
:20111e00000000000000000000000000000000000000000000000004426c000020000000df
:0a113e00803c0400000000000000e7
:201148000000000000000000000000000000000000000000000003606fd000000000007a6b
:091168003c300000000000000012
:201171000000200000000000000000000000000000000000000000142ade400000000000e2
:0a119100003c000000000000000018
:20119b000000000000000000000000000000000000000000000000e680e800200000005a6c
:0911bb003c3000000000000000bf
:2011c400000000000000000000000000000000000000000000000000265040000000000055
:0a11e400003c0000000000000000c5
:2011ee0000000000000000000000000000000000000000000000014605e214200009807a7c
:09120e0015500040000000000032
:20121700000000000000000000000000000000000000000000000000001021000000100076
:0a12370081540000000000000000d8
:201241000000000000000000000000000000000000000000000001604000000100080106dc
:0912610083d00000000000000031
:20126a00000000000000000000000000000000000000000000000014200000001000108090
:0a128a00403c2200000000000000bc
:20129400000000000000000000004000000000000000000000000147a4d5e00000091a072f
:0912b400bc100000000000000065
:2012bd0000000000000000000000000000000000004000000000000240eb1d00000018006f
:0a12dd0043c0000000000000000004
:2012e700000000000000000000000000000000000000000000200263aeac30208008017fb0
:091307002918200000000000007c
:20131000000000000000000000000000000000000000000000080e046ad0c200200050e156
:0a133000fa94010000000000000024
:20133a000000000000000000000000000000000000000000000008061f8c3020000001d2b7
:09135a004700000016000000002d
:20136300000000000000000000000000000000000000000000000100037043000000d0f9ea
:0a138300e17000000000000000000f
:20138d00000200000000000000000000000000000000000000000003a6e0262000000adf86
:0913ad0020008000200000000077
:2013b600000000000000000000000000000000000000000000000000404003084000010348
:0a13d600c204000001400000000006
:2013e0000000000000000000000000000000000000000000000001c02180a0000000009259
:0914000080d0c0002e00000000a5
:2014090000002000000000000000000000000000000000000000000200d005000000000bc1
:0a142900020c010002e000000000c8
:2014330000000000000000000000000000000000000000000000020686a0c0000021800604
:09145300040000001c075c0010fd
:20145c0000000000000000000000000000000000000000000000001401f85c00000500e919
:0a147c006c8000000023d500a000e2
:20148600000000000000000000000000000000000000000000000340000000000028007a61
:0914a600000000000000cea703c5
:2014af00000000000000000000000000000000000000000000000014000000000001900177
:0a14cf00c028040003438d0a5000fa
:2014d9000000000000000000000000000000000000000000000000000ea0a00000001b90fa
:0914f90000000000002b5ec000a1
:2015020000000000000000000000000000000000000000000000000038100a004000009f98
:0a1522000294800000040dee0000aa
:20152c00000000000000000000000000000000000000000000000340000000000001005b00
:09154c00280000001c676a180069
:2015550000000000000000000000000000000000000000000000003e00000000000008ef41
:0a1575000000000003429da5f000f5
:20157f000000080000053a590200000000000000000000000000000005c000008008005706
:09159f00a00082002028fea0003b
:2015a80000000200000000258040000000000000000000000000000000400a00200010b012
:0a15c8008200008003c43f0f5000b2
:2015d2003000000018000000000040000000000000000000000000000000000000078a9749
:0915f200148080000604695260b7
:2015fb00020000000000000000000000000000000000000000000000000000000280010942
:0a161b000168000000226782000051
:20162500006300000000000000000000000000000000000000000000000000000000001a28
:09164500a940000034005a200005
:20164e00000000000000000000000000000000000000000000000000000000000000500b21
:0a166e0003d4000001602cc240000c
:201678000000000000000000000000000000000000000000000000000000000000051a77bc
:0916980010908000067a5805024a
:2016a10000000000000000000000000000000000000000000000000000000000000008ab76
:0a16c100c008000000201d0db0005d
:2016cb000000000000000000000000000000000000000000000000000000000003038a73fc
:0916eb00a80000003604080342c7
:2016f40000000000000000000000000000000000000000000000003c000000000000080092
:0a1714004280000001428100300015
:20171e00000000005000000000000000000000000000000000000800000000000005190035
:09173e00000000000607dca00019
:201747000800000000000000000000000000000000000000000001000000000000000980f0
:0a1767000000000000020e0fa000b9
:201771000000300000000000000000000000000000000000000000000000000000051817f4
:0917910082800000066bee1802d4
:20179a0010000200000000000000000000000000000000000000000000000000000001011b
:0a17ba00c29400000000140af000c1
:0217c400000023
:0217c60011010f
:0217c80001011d
:2017ca000000020000000000000800000000000020000000000800000000000000000000cd
:0917ea00000000000000000000f6
:2017f3000000000000000000000000000000000000000000000000000000000000000000d6
:0a18130000000000000000000000cb
:20181d000000010000000000000400000000000010000000000400980000000000000000fa
:09183d00000000000000000000a2
:201846000000000000000000000000000000000000000000000000098000000000000000f9
:0a1866000000000000000000000078
:20187000000002000000040000080080002000002000000040080000003000000000000012
:091890000000000000000000004f
:2018990000000000000000400000000700030000000000000c0000000001000000000000d8
:0a18b9000000000000000000000025
:2018c300000000000004000000000000100000000000004000000000100000000000004061
:0918e300000000000701000000f4
:2018ec000000000000000000000000000000000000000000000000000000000000000000dc
:0a190c0000000000000000000000d1
:2019160000000000000400000000000010000000000140400000000030000000000200c02a
:09193600000000000001000000a7
:20193f00000000000000000000000000000000000000000000000000000000000000240064
:0a195f00000000000000000000007e
:2019690000000000020000000000000000000000000000000000000000100000000000004c
:09198900c0000000000000800015
:2019920000000000014000000000000000000000000000000000800000030000020000006f
:0a19b2000400000000000004000023
:2019bc000000000000000000000000000000000000000000000000000060000000000000ab
:0919dc0000000000000000000002
:2019e5000000000000000000000000000000000000000000000040000000000001000000a1
:0a1a050000000000000000000000d7
:201a0f00000000000004000000000000100000000000004000000000100000000000000053
:091a2f00000000000000000000ae
:201a380000000000000000000000000000000000000000000000800000000000020000000c
:0a1a58000000000000000000000084
:201a62000000000000000000000000000000000000000000000000002ff0900000000000b5
:091a82000000000000000000005b
:201a8b00000000000000000000000000000000000000000000000000035c8140000000001b
:0a1aab000000000000000000000031
:201ab500000000000000000000000000000000000000000000000002c0000000000000be91
:091ad500cd00000000000000003b
:201ade000000000000000000000000000000000000000000000000000400000000000001e3
:0a1afe0029c10000000000000000f4
:201b0800000000000000000000000000000000000000000000000002eff4100000000000c8
:091b2800000000000000000000b4
:201b3100000000000000000000000000000000000000000000000000275c184000000000b9
:0a1b5100000000000000000000008a
:201b5b000002000000000000000000000000000000000000000000002fb0900000000b00ee
:091b7b0000000000000000000061
:201b840000000000000000000000000000000000000000000000000002eeb0400000001051
:0a1ba4000000000000000000000037
:201bae00000000000000000000000000000000000000000000000000000000000000000017
:091bce000000000000000000000e
:201bd7000000200000000000000000000000000000000000000000000000000000000000ce
:0a1bf70000000000000000000000e4
:201c01000000000000000000000000000000000000000000000000000000000000000c00b7
:091c2100000000000000000000ba
:201c2a0000000000000000000000000000000000000000000000000020000000000001d0a9
:0a1c4a000000000000000000000090
:201c54000000000000000000000000000000000000000000008000002ff800820000000047
:091c740000000000000000000067
:201c7d00000000000000000000000000000000000000000000020000035c3240080000006c
:0a1c9d00000000000000000000003d
:201ca70000000000000000000000000000000000000000000000000000000000000000001d
:091cc70000000000000000000014
:201cd00000000000000000000000000000000000000000000000000000000000000000e014
:0a1cf00000000000000000000000ea
:201cfa0000000000000000000000e0000000000000000000000000000000000000000000ea
:091d1a00000000000000000000c0
:201d23000000000000000000000000000000000000000000000000000000000000000000a0
:0a1d4300000000c0000000000000d6
:201d4d0000000000000000000000000000000000000000000000000036d61000000000005a
:091d6d000000000000000000006d
:201d7600000000000000000000000000000000000000000000000000036d856000000000f8
:0a1d96000000000000000000000043
:201da000000000000000000000000000000000000000000000000002000000000000000021
:091dc0000000000000000000001a
:201dc9000000000000000000000000000000000000000000000000000000000000000000fa
:0a1de90000000000000000000000f0
:201df3000002000000000000000000000000000000000000000000000000000000000000ce
:091e1300000000000000000000c6
:201e1c0000000000000000000000000000000000000000000000000c00000000000000009a
:0a1e3c00000000000000000000009c
:201e4600000000000000000000000000000000000000000000000006400000000000000036
:091e660000000000000000000073
:201e6f00000020000000000000000000000000000000000000000000200000000000000013
:0a1e8f000000000000000000000049
:201e9900000000000000000000000000000000000000000000000000000000000000000029
:091eb9000000000004000000001c
:201ec200000000000000000000000000000000000000000000000000000000000000000000
:0a1ee20000000000020000000000f4
:201eec00000000000000000000000000000000000000000000800000000000000000000056
:091f0c00000008000000000000c4
:201f15000000000000000000000000000000000000000000000200000000000000000000aa
:0a1f35000000002000000000000082
:201f3f0000000000000000000000000000000000040000000000000000000000000000007e
:091f5f0000000000000000550420
:201f6800000000000000000000000000000000000000000000000000000000000000000059
:0a1f88000000000000001485540062
:201f920000000000000000000000000000000000000000000000000000000000000000002f
:091fb200000000000400200f00f3
:201fbb00000000000000000000000000000000000000000000000000000000000000000006
:0a1fdb00000000c002061e8f0c007b
:201fe5000000000000000000000000000000000000000000000000000000000000000000dc
:09200500000000000400200f009f
:20200e000000000000000000000000000000000000000000000000000000000000000000b2
:0a202e00000000000260168f0c0095
:20203800000000000000000000000000000000000000000000000000000000000000000088
:09205800000000000000000f0070
:2020610000000000000000000000000000000000000000000000000000000000000000005f
:0a208100000000000000168f0c00a4
:20208b00000200000000000000000000000000000000000000000000000000000000000033
:0920ab00000000000000000f001d
:2020b40000000000000000000000000000000000000000000000000000000000000000000c
:0a20d4000000000000001e8f0c0049
:2020de000000000000000000000000000000000000000000000000000000000000000000e2
:0920fe00000000008020200f000a
:20210700000020000000000000000000000000000000000000000000000000000000000098
:0a212700000000001460468f0e0057
:2021310000000000000000000000000000000000000000000000000000000000000000008e
:09215100000000000020200f0036
:20215a00000000000000000000000000000000000000000000000000000000000000000065
:0a217a00000000000000548f0c006c
:2021840000000000000000000000000000000000000000000000000000000000000000003b
:0921a40000000800003c000f00df
:2021ad00000000000000000000000000000000000000000000000000000000000000000012
:0a21cd000000002000005c8f0c00f1
:2021d7000000000000000000000000000000000000000000000000000000000000000000e8
:0921f700000000000000000f04cc
:202200000000000000000000000000000000000000000000000000000000000000000000be
:0a2220000000000000001c8f0c00fd
:20222a00000020000000000000000000000000000000000000000000000000000000000074
:09224a00000000000400200f0058
:20225300000003000000000000000000000000000000000000000000000000000000000068
:0a227300000000c002061e8f0c00e0
:20227d00000008000000000000000000000000000000000000000000000000000000000039
:09229d00000000000000200f0009
:2022a600000000000000000000000000000000000000000000000000000000000000000018
:0a22c600000000000060168f0c00fd
:2022d00000000000000000000000000000000000000000000000000000000000018000006d
:0922f000000000000000000f00d6
:2022f900000000000000000000000000000000000000000000000000000000000280000043
:0a231900000000000000168f0c0009
:20232300000200000000000000000000000000000000000000000000000000000000000098
:09234300000002000000000f0080
:20234c00000000000000000000000000000000000000000000000000000000000000000071
:0a236c000000000000001e8f0c00ae
:20237600000000000000000000000000000000000000000000000000000000000000000047
:09239600000000001c20200f00d3
:20239f000000200000000000000000000000000000000000000000000000000000000000fe
:0a23bf00000000000260548f0c00c3
:2023c9000000000010000000000000000000000000000000000000000000000000000000e4
:0923e900000000000020200f009c
:2023f2000000000008000000000000000000000000000000000000000000000000000000c3
:0a241200000000000006548f0c00cb
:20241c00000020000000000000000000000000000000000000000000000000000020000060
:09243c00000008000000000f0080
:202445000000008000000000000000000000000000000000000000000000000000040000f3
:0a2465000000002000001c8f0c0096
:20246f0000000800000001541200000000000000040000000020000000000000800000003a
:09248f0000000200003c090000fd
:2024980000000000000052155200000000000000000000000000000000000000000000006b
:0a24b80000000000000016000800fc
:2024c200000020001000803c0200000000000000000000000000000200000000000000000a
:0924e200000000000000000000f1
:2024eb000000030008187a3c300000000000000000000000000000002000000000000000a8
:0a250b0000000000000000000000c6
:20251500000008001000803c002000000000000000000000000000000000000000000000b2
:092535000000000000000000009d
:20253e000000000009805a3c3000000000000000000000000000000000000000000000002e
:0a255e000000000000000000000073
:20256800000000000000003c200000000000000000000000000000000000000000000000f7
:092588000000000000000000004a
:202591000000000000005a3c30000000000000000000000000000000000000000000000064
:0a25b1000000000000000000000020
:2025bb00000200000000003c000000000000000000000000000000000000000000000000c2
:0925db00000000000000000000f7
:2025e4000000000000007a3c300000000000000000000000000000000000000000000000f1
:0a26040000000000000000000000cc
:20260e00002c00000080803c000000000000000000000000000000003fa9800010000000cc
:09262e00000000000000000000a3
:20263700000060000181523c3010000000000000000000000000000003e8305000800000e8
:0a2657000000000000000000000079
:202661000c0000000080803c200000000000000000000000000000400000000000000000b1
:0926810000000000000000000050
:20268a00048000000019523c300000000000000000000000000000000000000000000000d5
:0a26aa000000000000000000000026
:2026b400800020000000003c0000000000000000000000000080000000000000002000008a
:0926d400000000000000000000fd
:2026dd00000000800000723c30000000000000000000000000020000000000000004000079
:0a26fd0000000000000000000000d3
:20270700000208000000003c10200000000000000000000000200003400000008000000059
:09272700000002000000000000a7
:20273000040000000000723c300000000000000000000000000000000400000000000000a3
:0a275000000000000000000000007f
:20275a00000020001000803c00000022cc0000000000000000000000000000000000000085
:09277a0000000000000000000056
:202783000000030008187a3c3000001400dc0a000000000000000000000000000000000033
:0a27a300000000000000000000002c
:2027ad00000000000000803c0000000400000000000000000000000000000000000000004c
:0927cd0000000000800000000083
:2027d6000000000001805a3c30000000280000000000000000000000000000000000000074
:0a27f60000000000000000000000d9
:20280000000000000000003c00000344000000000000000000000000000000000000000035
:09282000000000000000000000af
:202829000000000003005a3c3000000028000000000000000000000000000000000000009e
:0a2849000000000000000000000085
:20285300000200000080003c00000360000000000000000000000000000000000000000044
:092873000000000000000000005c
:20287c000000000000007a3c30000014000000000000000000000000000000000000000042
:0a289c000000000000000000000032
:2028a600000000000080803c000000003c0500000000000000000000000000000000000095
:0928c60000000000000000000009
:2028cf00000020000181523c30000000021ea00000000000000000000000000000000000c9
:0a28ef0000000000000000000000df
:2028f900000000000080803c00000000000000000000000000000000000000000000000083
:09291900000000000000000000b5
:20292200000000000019523c300000000000000000000000000000000000000000000000be
:0a294200000000000000000000008b
:20294c00000020000000003c000000003ddbf0000000000000000000000000000000000007
:09296c0000000000000000000062
:20297500000000800000723c3000000002ef7e000000000000000000000000000000000075
:0a2995000000000000000000000038
:20299f000000000000003400000000000000000004000000000000000000000000000000e0
:0929bf000000000000000000000f
:2029c800000000000000380020000000000000000000000000000000000000000000000097
:0a29e80000000000000000000000e5
:2029f2000000000078014000000002c600000000000000000000000037c2400400000036d1
:092a1200c70000001401ca000114
:202a1b0000000000038a9a820080002074000000000000000000000002ec10408000598542
:0a2a3b00a49106000200258fc400dc
:202a45000000000000d5640000000000250700900000000000000140000f00000000000428
:092a650030000000000000000038
:202a6e0000000000000112a000000000025ef1530000000000000020000af0500000000087
:0a2a8e002b00080000028000000089
:202a9800000000000000000000000342f60000000000000000000002800000000000003031
:092ab80002800000000020a008cb
:202ac1000000000000180000000000003b5c01020000000000000000040000000000300807
:0a2ae1007814000000001d8a0200b6
:202aeb0000020000000783fc000000003dd0000000000000000000228000000000000098fc
:092b0b0010804000000040500061
:202b1400000000000500f33e8000000003fd80000000000000000004040000000000180546
:0a2b3400e1490800000035ef04003d
:202b3e000000000000000000000000028000000000000000000002c24000000000000a00e7
:092b5e0015400000000010f00019
:202b67000000200000000000000000000400000000000000000000240400000000001801e9
:0a2b8700a15400000000018f0400bb
:202b91000000000019df6400000000040000000000000000000000c3c000000000000c082d
:092bb10003c000000c000000004c
:202bba00000000000d0bd7690000000028000000000000000000000000000000000000116a
:0a2bda00a3c2000000060000000086
:202be40000000000d9b1c000008000030000000000000000008000025f0180160001000883
:092c040003c008000c243050004c
:202c0d0000000000050ad79000820000040000000000000000020000047c1042880099a70f
:0a2c2d00a3c20020000006a502006b
:202c37000000000008b04028000000000000000000000000001000001500000400000d0225
:092c570083c000001c0000000015
:202c60000000000001807e0280000016000000000000000000010000036a05000080581161
:0a2c800067c200000200000000001f
:202c8a000030000000a5fe740080000000000000000000000000014000000000000f9c0077
:092caa00000000002600400800b3
:202cb300000040000000f266c00c0000000000000000000000000000000000000000b8a045
:0a2cd30000000000026681a040200e
:202cdd000000000000000000000000000000000000000000000000040000000000008058fb
:092cfd00008000400001f0ad0070
:202d060000000000000800000000400600000000000000000000001e68000000003850034e
:0a2d26007800080800602582e02014
:202d300000000000000000000000000000000000000000000008000000000000000000f487
:092d5000000440000002c022084a
:202d5900000000000000000000000000000000000000000000000004280000000000000925
:0a2d790068280400016006e88020cd
:202d8300000200000000000000000000000000000000000000000000000000000000101806
:092da30010004000002ac08a283b
:202dac00000000000000000000000000000000000000000000000000000000000000008780
:0a2dcc00e80008000003c6a8f0208c
:202dd60000000000d000000000000000000000000000000000000006eee00088000310900e
:092df60010020000020370aa00a3
:202dff000000200000000000000000010000000000000000000000002b6b0400000081cfa9
:0a2e1f00e00808000142868a500016
:202e29003000000000000000000000000000000000000000000000200000000000000977b9
:092e4900c44000a0143a405000fe
:202e52000300000000000000000000000000000000000000000000140000000000005811e0
:0a2e7200ae200000000041ea0080dd
:202e7c000000000000000000008000000000f01000000000008000000eb5b000000590002e
:092e9c000000000034787c0708f6
:202ea500000000000000000000020000000e0f40000000000002000003cfff40000018a0e3
:0a2ec500000000000147ffbab20050
:202ecf000000000000b0000000000000000000000400000000000000000000000007000028
:092eef000000000000695ea10072
:202ef8000000000000000000000000000000000000000000000000000000000000000000ba
:0a2f18000000000001c72590000032
:022f22000000ad
:022f2400110298
:022f26000101a7
:202f2800000000000000000000000000000000000000000000000000000000000000000089
:092f480000000000000000000080
:202f5100000000000000000000000000000000000000000000000000000000000000000060
:0a2f71000000000000000000000056
:202f7b00000000000000000000000000000000000000000000000000000000000000000036
:092f9b000000000000000000002d
:202fa40000000000000000000000000000000000000000000000000000000000000000000d
:0a2fc4000000000000000000000003
:202fce000000000000000000000000000000000000000000000000000000000000000000e3
:092fee00000000000000000000da
:202ff7000000000000000000000000000000000000000000000000000000000000000000ba
:0a30170000000000000000000000af
:203021000000000000080000000000002000000000080000000000002000000000000080bf
:0930410000000000000200000084
:20304a00000000000000000000000000000000000000000000000000000000000000000066
:0a306a00000000000000000000005c
:2030740000000000000800000000000020000000000800000000000020000000000000806c
:0930940000000000000200000031
:20309d00000000000000000000000000000000000000000000000000000000000000000013
:0a30bd000000000000000000000009
:2030c7000000000000000000000000000000000000000000000000000000000000000000e9
:0930e700000000000800040000d4
:2030f0000000000000000000000000000000000000000000000000000000000000000000c0
:0a31100000000000008000780000bd
:20311a00000000000000000000000000000000000000000000000000000000000000000095
:09313a000000000000000000008c
:2031430000000000000000000000000000000000000000000000000000000000000000006c
:0a3163000000000000000000000062
:20316d00000000000000000000000000000000000000000000000000000000000000000042
:09318d0000000000000000000039
:20319600000000000000000000000000000000000000000000000000000000000000000019
:0a31b600000000000000000000000f
:2031c0000000000000000000000000000000000000000000000000000000000000000000ef
:0931e000000000000000000000e6
:2031e9000000000000000000000000000000000000000000080000000000000000000000be
:0a32090000000000000000000000bb
:2032130000000000000000000000000000000000000000000000000000000000000000009b
:0932330000000000000000000092
:20323c00000000000000000000000000000000000000000000000000000000000000000072
:0a325c000000000000000000000068
:20326600000000000000000000000000000000000000000000000000000000000000000048
:093286000000000000000000003f
:20328f0000000000000000000000000000000000000000000000000000000000000000001f
:0a32af000000000000000000000015
:2032b9000002000000000000000000000000000000000000000000000000000000000000f3
:0932d900000000000000000000ec
:2032e2000000000000000000000000000000000000000000000000000000000000000000cc
:0a33020000000000000000000000c1
:20330c000000000000000000000000000000000000000000000000000000000000000000a1
:09332c0000000000000000000098
:20333500000020000000000000000000000000000000000000000000000000000000000058
:0a335500000000000000000000006e
:20335f0000000000000000000000000000000000000000000000000000000000000000004e
:09337f0000000000000000000045
:20338800000000000000000000000000000000000000000000000000000000000000000025
:0a33a800000000000000000000001b
:2033b2000000000000000000000000000000000000000000000000000000000000000000fb
:0933d200000000000000000000f2
:2033db000000000000000000000000000000000000000000000000000000000000000000d2
:0a33fb0000000000000000000000c8
:203405000000000000000000000000000000000000000000000000000000000000000000a7
:093425000000000000000000009e
:20342e0000000000000000000000000000000000000000000000000000000000000000007e
:0a344e000000000000000000000074
:20345800000000000000000000000000000000000000000000000000000000000000000054
:093478000000000000000000004b
:2034810000000000000000000000000000000000000000000000000000000000000000002b
:0a34a1000000000000000000000021
:2034ab00000000000000000000000000000000000000000000000000000000000000000001
:0934cb00000000000000000000f8
:2034d4000000000000000000000000000000000000000000000000000000000000000000d8
:0a34f40000000000000000000000ce
:2034fe000000000000000000000000000000000000000000000000000000000000000000ae
:09351e00000000000000000000a4
:20352700000000000000000000000000000000000000000000000000000000000000000084
:0a354700000000000000000000007a
:20355100000200000000000000000000000000000000000000000000000000000000000058
:0935710000000000000000000051
:20357a00000000000000000000000000000000000000000000000000000000000000000031
:0a359a000000000000000000000027
:2035a400000000000000000000000000000000000000000000000000000000000000000007
:0935c400000000000000000000fe
:2035cd000000200000000000000000000000000000000000000000000000000000000000be
:0a35ed0000000000000000000000d4
:2035f7000000000000000000000000000000000000000000000000000000000000000000b4
:09361700000000000000000000aa
:2036200000000000000000000000000000000000000000000000000000000000000000008a
:0a3640000000000000000000000080
:20364a00000000000000000000000000000000000000000000000000000000000000000060
:09366a0000000000000000000057
:20367300000000000000000000000000000000000000000000000000000000000000000037
:0a369300000000000000000000002d
:20369d0000000000000000000000000000000000000000000000000000000000000000000d
:0936bd0000000000000000000004
:2036c6000000000000000000000000000000000000000000000000000000000000000000e4
:0a36e60000000000000000000000da
:2036f0000000000000000000000000000000000000000000000000000000000000000000ba
:09371000000000000000000000b0
:20371900000020000000000000000000000000000000000008000000000000000000000068
:0a3739000000000000000000000086
:20374300000000000000000000000000000000000000000000000000000000000000000066
:093763000000400000000000001d
:20376c0000000000000000000000000000000000000000000000000000000000000000003d
:0a378c000000010000000000000032
:20379600000000000000000000000000000000000000000000000000000000000000000013
:0937b6000000000000000000000a
:2037bf000000000000000000000000000000000000000000000000000000000000000000ea
:0a37df0000000000000000000000e0
:2037e9000000000000000000000000000000000000000000000000000000000000000020a0
:09380900000000000000000000b6
:20381200000000000000000000000000000000000000000000000000000000000000000096
:0a383200400000000000000000004c
:20383c0000000000000000000000000000000000000000000000000000000000000000006c
:09385c0000000000000000000063
:2038650000002400000000000000000000000000000000000000000000000000000000001f
:0a3885000000000000000000000039
:20388f00000000000000000000000000000000000000000000000000000000000000000019
:0938af0000000000000000000010
:2038b8000000000000000000000000000000000000000000000000000000000000000000f0
:0a38d80000000000000000000000e6
:2038e2000000000000000000000000000000000000000000000000000000000082697e80dd
:09390200000000000000000000bc
:20390b0008000000000000000000000000000000000000000000000000000000000690c03e
:0a392b000000000000000000000092
:20393500000000000000000000000000000000000000000000000000000000000000000072
:0939550000002000000000000049
:20395e000000000000000000700000000000000000000000000000000000000000000001d8
:0a397e0040000000000000000000ff
:20398800000000000000000000000000000000000000000000000000000000080000000017
:0939a800000020000000000000f6
:2039b1000000200000000000000000000000000000000000000000000000000100000003d2
:0a39d10040000400000000000000a8
:2039db0000004000000000000000000000000000000000000000000000000010000000007c
:0939fb00000000000000000000c3
:203a040008000000000000000000000000000000000000000000000000000000400000005a
:0a3a24000000000000000000000098
:203a2e00000000000000000000000000000000000000000000000000000000000000000078
:093a4e00280000000000500000f7
:203a5700080000000000000000000000000000000000000000000000000000000000000047
:0a3a770004000000000000800000c1
:203a8100000100000000000000000000000000000000000000000000000000000000000024
:093aa100000000000000580000c4
:203aaa000000000000000000000000000000000000000000000000000000000000000001fb
:0a3aca004000000000000d80000025
:203ad400400000000000000000000000000000000000000000000000000000000000000092
:093af40000000002e76e00000072
:203afd000000000000000000000000000000000000000000000000000000000000000000a9
:0a3b1d000000000439b6b0000000fb
:203b270000000000000000000000000000000000000000000000000000000000000000007e
:093b470000000000000000000075
:203b5000000000000000000000000000000000000000000000000000000000000000000055
:0a3b7000000000000000000000004b
:203b7a0000000000000000000000000000000000000000000000bc1e0000000000017e8052
:093b9a0000000000000000000022
:203ba3000800000000000000000000000000000000000000000003c020000000000009e826
:0a3bc300000000000000000e0000ea
:203bcd000000000000000000000000000000000000000000000000000800000800000020a8
:093bed00000000000000000000cf
:203bf60000000000000000000000000000000000000000000000000000100000000000019e
:0a3c16004000000000000000000064
:203c200000000000000000000000000000000000000000000000000000000000010086807d
:093c40000000200003cd01f0009a
:203c4900004000000000000000400000000000000000000008000000000000000000014092
:0a3c69000000040010149018001071
:203c730000000000000000000000000000000000000000000000000000000000030f13808c
:093c930000004000000080000167
:203c9c0000000000000000000000000000000000000000000000000000000000000f0000f9
:0a3cbc00038001000000090000046d
:203cc60000000000000000000000000000000000000000000000000000000000030f12a614
:093ce60000000000037b1800003f
:203cef0000000000000000000040000000000000000000000000000000000000000f004026
:0a3d0f0040000000011ef00000005b
:203d190000020000000000000000000000000000000000060000000000000000030f12a0be
:093d39006000011a3d4800b000d1
:203d420000000000000000000000000000000000000000004000000000000000000f0042d0
:0a3d62004000002003828d180000cd
:203d6c0000000000000000000000000000000000000000000000000000000000030f17808e
:093d8c000000000140de58a00017
:203d950000002000000000000000000000000000000000000000000000000000000f0000df
:0a3db500000000001402000a0000e4
:203dbf0000000000000000000000000000000000000000000000000000000000030f16803c
:093ddf0000000102947f1880002d
:203de80000000000000000000000000000000000000000000000000000000000000f0000ac
:0a3e0800000000000682f010000028
:203e120000000000000000000000000000000000000000000000000000000000030f1780e7
:093e32006000010168fc50000071
:203e3b0000000000000000000000000000000000000000000000000000000000000f004018
:0a3e5b00000000000202f50a00005a
:203e650000000000000000000000000000000000000000000000000000000000030f17a66e
:093e85000400200041ecd9b0005a
:203e8e0000000000000000000000000000000000000000000000000000000000000f0040c5
:0a3eae0042000000003ec50a0000bb
:203eb80000000000000000000000000000000000000000002000000000000000030f138025
:093ed8000000000004ff000000de
:203ee10008002000000000000000000000000000000000000100000000000000020f000087
:0a3f010000000004000df0000000b5
:203f0b0000000000000000000000000000000000000000000000000000000000030f1380f1
:093f2b00000040000000800000cd
:203f340008000000000000000000000000000000000000000000000000000000000f000056
:0a3f54000000010000000900000059
:203f5e0000000000000000000000000000000000000000000000000000000000030f12a679
:093f7e000000000000000000003a
:203f870000000000000000000000000000000000000000000000000000000000000f0040cb
:0a3fa70040000000000000000000d0
:203fb10000030000000000000800000000000000000000000000000000000000030f12a021
:093fd10060000000000000000087
:203fda0000000000000000000080000000000000000000000000000000000000000f0040f8
:0a3ffa00400000000000000000007d
:2040040000000000000000000000000000000000000000000000000000000000030f1780f3
:09402400000000000000d80000bb
:20402d000003c000000000000000000000000000000000000000000000000000080f000099
:0a404d00000000000000050a00005a
:2040570044000000000000000000000000000000000000000000000000000000030f16805d
:0940770000000000026c01a00031
:2040800000800000000000000000000000000000000000000000000000000000000f000091
:0a40a00000000000021fd000000025
:2040aa0000000000000000000000000000000000000000000000000000000000030f16804e
:0940ca006400000004ff00000086
:2040d30008000000000000000000000000000000000000000000000000000000000f004076
:0a40f30002000000000df0000000c4
:2040fd0040000000000000000000000000000000000000000000000000000000030f1786b4
:09411d00040020000000d810008d
:2041260000000000000000000000000000000000000000000000000000000000000f00402a
:0a414600020000000000050a00005e
:20415000400000000000000000000000000000000000000000000000000c000002aa1280c5
:094170000000000000001800002e
:2041790000002000000000000000000000000000000000000800000000100000020aa00042
:0a419900000000000000000000001c
:2041a3000078000000000000000000000000000000000000000003ce800000000000000033
:0941c30000004000154c00000151
:2041cc0008040000000000000000000000000000000000000000113c7c009000000000006e
:0a41ec000000010017c3900000045a
:2041f6004c00000000000000000000000000000000000000000031ec8000000000000000c0
:0942160004000000155c500000da
:20421f00c0c00000000000000000000000000000000000000000430c490000000000000067
:0a423f00020000002bc0d08b000c21
:204249000003000000000000000000000000000000000000000003cc800000000000000003
:09426900000000083ce000000028
:2042720000000000000000000100000000000000000000000000123c7c0000000000000061
:0a4292000000000003c2000000005d
:20429c00000000000000000000000000000000000000000000000000001c000000000000e6
:0942bc00000000000000001008e1
:2042c500000020000000000000000000000000000000000000000000007000000000000049
:0a42e5000000000000000d0d0000b5
:2042ef0040000000000000000000000000000000000000000000000000000000000000006f
:09430f00000000083cc001800818
:2043180000c00000000000000000000000000000000000000000000000f0000000000000d5
:0a4338000000000003c007000100b0
:2043420000000000000000000000000000000000000000000000000000000000000000005b
:09436200000000000000780000da
:20436b0008000000000000000000000000000000000000000000000000000000000000002a
:0a438b000000000000000000000028
:20439500407800000000000000000000000000000000000000000000000000000000000050
:0943b500000520000000000000da
:2043be000000000000000000000000000000000000000000000000000000000000000000df
:0a43de0000002000000000000000b5
:2043e8004000002695040000000000b781800000000000000000000000000000020f70007d
:09440800000000083dc0000000a6
:204411000000000096028000000800014bd000000000000000000000000000000000f080df
:0a4431000000000003c200000000bc
:20443b00000000000000000004000000050a0000000000000000000000000000000000004e
:09445b0000004000000000000117
:2044640008000000000000000010000000d9b0000000000000000000000000000000000097
:0a4484000000010000000d0000041c
:20448e0048040000000000400020004ee50a0000000000000000000000000000020f78009c
:0944ae0000000000000000a00065
:2044b700c083c00000000020000000024a0900000000000000000000000000000000f080fd
:0a44d700000000000000001b000cb4
:2044e1000003000000000600001004159019000000000000000000000000000000000000e0
:09450100000000083d4000040028
:20450a000000000000000000000000002800800000000000000000000000000000000000e9
:0a452a000000000003c00000a00024
:20453400000000000000000000001407e0010000000000000000000000000000000000006b
:09455400040000083ce000000036
:20455d000000200000000000000001402000d00000000000000000000000000000000000ed
:0a457d000200000003c0000000006f
:204587000000002f058000000000140ce01a00000000000000000000000000000000000046
:0945a700000000083c6080801057
:2045b00000000000f0000000000000000f00000000000000000000000000000000000000ec
:0a45d0000000000003c20500008097
:2045da00000000000000000000100045b0090000000000000000000000000080020f78208a
:0945fa00000000083d40f0000043
:204603000000000000000000000002042971a0000000000000000000000000100000f00057
:0a4623004000000003c00580000005
:20462d0000000000000000000200000000000000000000000000000000000000020f30200a
:09464d00000000083ce000000040
:204656000000000000000000001000000000e0000000000000000000000000000000f00064
:0a46760042c0000003c20000000073
:02468000000038
:02468200110322
:02468400010132
:20468600000000000000000000000000000000000000000000000000000000000000000014
:0946a6000000000000000000000b
:2046af000000000000000000000000000000000000000000000000000000000000000000eb
:0a46cf0000000000000000000000e1
:2046d9000000000000000000000000000000000000000000000000000000000000000000c1
:0946f900000000000000000000b8
:20470200000000000000000000000000000000000000000000000000000000000000000097
:0a472200000000000000000000008d
:20472c0000000000000000000000000000000000000000000000000000000000000000006d
:09474c0000000000000000000064
:20475500000000000000000000000000000000000000000000000000000000000000000044
:0a477500000000000000000000003a
:20477f0000000000000800000000000020000000000800000000000020000000000000804a
:09479f000000000000020000000f
:2047a8000000000000000000000000000000000000000000000000000000000000000000f1
:0a47c80000000000000000000000e7
:2047d2000000000000080000000000002000000000080000000000002000000000000080f7
:0947f200000000000002000000bc
:2047fb0000000000000000000000000000000000000000000000000000000000000000009e
:0a481b000000000000000000000093
:20482500000000000000000000000000000000000000000000000000000000000000000073
:094845000000000000000000006a
:20484e0000000000000000000000000000000000000000000000000000000000000000004a
:0a486e000000000000000000000040
:20487800000000000000000000000000000000000000000000000000000000000000000020
:0948980000000000000000000017
:2048a1000000000000000000000000000000000000000000000000000000000000000000f7
:0a48c10000000000000000000000ed
:2048cb000000000000000000000000000000000000000000000000000000000000000000cd
:0948eb00000000000000000000c4
:2048f4000000000000000000000000000000000000000000000000000000000000000000a4
:0a4914000000000000000000000099
:20491e00000000000000000000000000000000000000000000000000000000000000000079
:09493e0000000000000000000070
:20494700000000000000000000000000000000000000000000000000000000000000000050
:0a4967000000000000000000000046
:20497100000000000000000000000000000000000000000000000000000000000000000026
:094991000000000000000000001d
:20499a000000000000000000000000000000000000000000000000000000000000000000fd
:0a49ba0000000000000000000000f3
:2049c4000000000000000000000000000000000000000000000000000000000000000000d3
:0949e400000000000000000000ca
:2049ed000000000000000000000000000000000000000000000000000000000000000000aa
:0a4a0d00000000000000000000009f
:204a170000020000000000000000000000000000000000000000000000000000000000007d
:094a370000000000000000000076
:204a4000000000000000000000000000000000000000000000000000000000000000000056
:0a4a6000000000000000000000004c
:204a6a0000000000000000000000000000000000000000000000000000000000000000002c
:094a8a0000000000000000000023
:204a93000000200000000000000000000000000000000000000000000000000000000000e3
:0a4ab30000000000000000000000f9
:204abd000000000000000000000000000000000000000000000000000000000000000000d9
:094add00000000000000000000d0
:204ae6000000000000000000000000000000000000000000000000000000000000000000b0
:0a4b060000000000000000000000a5
:204b1000000000000000000000000000000000000000000000000000000000000000000085
:094b30000000000000000000007c
:204b390000000000000000000000000000000000000000000000000000000000000000005c
:0a4b59000000000000000000000052
:204b6300000000000000000000000000000000000000000000000000000000000000000032
:094b830000000000000000000029
:204b8c00000000000000000000000000000000000000000000000000000000000000000009
:0a4bac0000000000000000000000ff
:204bb6000000000000000000000000000000000000000000000000000000000000000000df
:094bd600000000000000000000d6
:204bdf000000000000000000000000000000000000000000000000000000000000000000b6
:0a4bff0000000000000000000000ac
:204c090000000000000000000000000000000000000000000000000000000000000000008b
:094c290000000000000000000082
:204c3200000000000000000000000000000000000000000000000000000000000000000062
:0a4c52000000000000000000000058
:204c5c00000000000000000000000000000000000000000000000000000000000000000038
:094c7c000000000000000000002f
:204c850000000000000000000000000000000000000000000000000000000000000000000f
:0a4ca5000000000000000000000005
:204caf000002000000000000000000000000000000000000000000000000000000000000e3
:094ccf00000000000000000000dc
:204cd8000000000000000000000000000000000000000000000000000000000000000000bc
:0a4cf80000000000000000000000b2
:204d0200000000000000000000000000000000000000000000000000000000000000000091
:094d220000000000000000000088
:204d2b00000020000000000000000000000000000000000000000000000000000000000048
:0a4d4b00000000000000000000005e
:204d550000000000000000000000000000000000000000000000000000000000000000003e
:094d750000000000000000000035
:204d7e00000000000000000000000000000000000000000000000000000000000000000015
:0a4d9e00000000000000000000000b
:204da8000000000000000000000000000000000000000000000000000000000000000000eb
:094dc800000000000000000000e2
:204dd1000000000000000000000000000000000000000000000000000000000000000000c2
:0a4df10000000000000000000000b8
:204dfb00000000000000000000000000000000000000000080000000000000000000000018
:094e1b000000000000000000008e
:204e240000000000000000000000000000000000000000000000000000000000000000006e
:0a4e44000000000000000000000064
:204e4e00000000000000000000000000000000000000000000000000000000000000000044
:094e6e000000000000000000003b
:204e770000000000000000000000000000000000000000000000000000000000000000001b
:0a4e97000000000000000000000011
:204ea1000000000000000000000000000000000000000000000000000000000000000000f1
:094ec1000000000002eb00b0004b
:204eca000000000000000000000000000000000000000000000000000000000000000000c8
:0a4eea0000000000006cf000000062
:204ef40000000000000000000000000000000000000000000000000000000000000000009e
:094f140000000003dc089000001d
:204f1d00000000000000000000000000000000000000000000000000000000000000000074
:0a4f3d00000000103ecc1808000030
:204f4700000200000000000000000000000000000000000000000000000000000000000048
:094f670000000003f76900b0002e
:204f7000000000000000000000000000000000000000000000000000000000000000000021
:0a4f9000000000001fadb780000014
:204f9a000000000000000000000000000000000000000000000000000000000000000000f7
:094fba0000000002e82c00a00038
:204fc3000000200000000000000000000000000000000000000000000000000000000000ae
:0a4fe300000000111755b5990000f9
:204fed000000000000000000000000000000000000000000000000000000000000000000a4
:09500d0000000002043d50000007
:2050160000000000000000000000000000000000000000000000000000000000000000007a
:0a503600000000100054939a0000df
:20504000000000000000000000000000000000000000000000000000000000000000000050
:0950600000000040000a500000ad
:20506900000000000000000000000000000000000000000000000000000000000000000027
:0a508900000000001414981a000043
:205093000000000000000000000000000000000000000000000000000000000000000000fd
:0950b30000000000280900a00023
:2050bc000000000000000000000000000000000000000000000000000000000000000000d4
:0a50dc00000000000146150100006d
:2050e6000000000000000000000000000000000000000000000000000000000000000000aa
:09510600000000000000000000a0
:20510f00000000000000000000000000000000000000000000000000000000000000000080
:0a512f00000003000000001a000059
:20513900000000000000000000000000000000000000000000000000000000000000000452
:095159000000004001c9d0000073
:2051620000000000000000000000000000000000000000000000000000000000000000022b
:0a518200000000002016b018000025
:20518c0000000000000000000000000000000000000000000000000000000000009603c0aa
:0951ac00000000000000000000fa
:2051b50000000000000000000000000000000000000000000000000000000000006695805f
:0a51d50000000000000000000000d0
:2051df000002000000000000000000000000000000000000000000000000000000000000ae
:0951ff0000004000000050000017
:20520800000000000000000000000000000000000000000000000000000000000000000086
:0a5228000000000000000800000074
:2052320000000000000000000000000000000000000000000000000000000000000000005c
:0952520000000002802f00a00002
:20525b00000020000000000000000000000000000000000000000000000000000000000013
:0a527b00060000001416059b000059
:205285000000000000000000000000000000000000000000000000000000000008f0080009
:0952a50000000000002a50b000d6
:2052ae0000000000000000000000000000000000000000000000000000000000002f0700aa
:0a52ce00000000100405b800000005
:2052d8000000000000000000000000000000000000000000000000000000000000000000b6
:0952f800000010000368d0000062
:2053010000000000000000000000000000000000000000000000000000000000000000008c
:0a53210000000400004de000000051
:20532b000000000000000000000000000000000000000000800000000000000000000000e2
:09534b0000004000000000000019
:20535400000000000000000000000000000000000000000000000000000000000000000039
:0a537400000000000000059a000090
:20537e0000000000000000000000000000000000000000000000000000000000000000000f
:09539e0000000000000001000005
:2053a7000000000000000000000000000000000000000000000000000000000000000000e6
:0a53c700000000000000000a0000d2
:2053d1000000000000000000000000000000000000000000000000000000000000000000bc
:0953f100000000000000000000b3
:2053fa00000000000000000000000000000000000000000000000000000000000000000093
:0a541a000000000000000000000088
:20542400000000000000000000000000000000000000000000000000000000000000000068
:095444000000000000000000005f
:20544d0000000000000000000000000000000000000000000000000000000000000000003f
:0a546d000000000000000000000035
:20547700000000000000000000000000000000000000000000000000000000000000000015
:0954970000000000000078000094
:2054a0000000000000000000000000000000000000000000000000000000000000000000ec
:0a54c00000000000000005000000dd
:2054ca000000000000000000000000000000000000000000000000000000000000000000c2
:0954ea00000000000000000000b9
:2054f300000000000000000000000000000000000000000000000000000000000000000099
:0a551300000000000000000000008e
:20551d0000000000000000000000000000000010000000000000000000000000000000005e
:09553d000000000002fe00000065
:20554600000000000000000000000000000000000000000000000000000000000000000045
:0a556600000000000084d0000000e7
:2055700000000000000000000000000000000000000000000000000000000000000000001b
:0955900000000000000000000012
:205599000000000000000000000000000000000000000000000000000000000000000000f2
:0a55b90000000000000000000000e8
:2055c3000000000000000000040000000000001000000000000000000000001000000000a4
:0955e30000004000000008000176
:2055ec0000000000000000000000000000000000000000000000000000000000000000009f
:0a560c00000000000000050000008f
:20561600000000000000000000000000000000040000000000000000000000000000000070
:095636000000000000000000006b
:20563f000000000000000000000000000000000080000000000000000000000000000000cb
:0a565f000000000000000000000041
:20566900000000000000000000000000000000000000000000000000000000008055040444
:0956890000000000000000000018
:2056920000000000000000000000000000000000000000000000000000000000002555bac4
:0a56b20000000000000000000000ee
:2056bc000000000000000000000000000000000000000000000000000000000000000000ce
:0956dc0000000000000000d000f5
:2056e5000000000000000000000000000000000000000000000000000000000000000000a5
:0a5705000000000000000001000099
:20570f0000020000000000000000000000000000000000000000000000000000000f000069
:09572f0000000000000000000071
:20573800000000000000000000000000000000000000000000000000000000000020f5003c
:0a575800000000000000000800003f
:20576200000000000000000000000000000000000000000000000000000000000000000027
:09578200200002403ceb00000095
:20578b000000200000000000000000000000000000000000000000000000000000000000de
:0a57ab0000400005a2d5c000000078
:2057b50000000000000000000000000000080000000000000000000000000000000f0000bd
:0957d500200000000000d00000db
:2057de00000000000000000000000000000010000000000000000000000000000020f58006
:0a57fe0000400000000001800000e0
:2058080000000000000000000000000000000004000000000000000000000000000000027a
:0958280000021000000000000065
:20583100400000000000000000000000000000010000000000000000000000000000000016
:0a5851006000440000000000001099
:20585b00000000000000000000082a8000000000000000008000000000000000000f0800e4
:09587b0000000000000000000024
:20588400000000000000000000000aa84a0000000000000000000000000000000020f18077
:0a58a40000000000000000000000fa
:2058ae000000000fb002424000003c010008000400000000000003c000000000000000008b
:0958ce00000000000000000000d1
:2058d70000000040fb5b206400000c3c5e181000800000000000083dc00000000000000044
:0a58f70000000000000000000000a7
:205901000000000fdda4034000003c0100080000000000000000000000000000000000006e
:095921000000000000000000007d
:20592a00000000007e96c00000000c3c5a01900000000000000000000001800000000000d5
:0a594a000000000000000000000053
:205954000000008a6038000000003c000000000000000000000000000000000000000000d5
:095974000000000000000000002a
:20597d0000000052a557800000000c3c5a000000000000000000000000000000000000009a
:0a599d000000000000000000000000
:2059a70000020000002c02c000043c000000000000000000000003c200000400005a024249
:0959c70000000003897c00a0002f
:2059d00000000040807b006000000c3c5e000000000000000000083c40000000002a500177
:0a59f000400000002044c5810000c3
:2059fa00000000000fa4028000003c0101000000000000000000000000000000005a03407d
:095a1a0000000000000000000083
:205a23000000200001db166c00000c3c4a818000000000000000000000000000002a5000d8
:0a5a43000000000000000000000059
:205a4d00000000000000240000043c010100002000000000000000000000000000000000b3
:095a6d0000000000000000000030
:205a7600000000000000167000000c3c4a980002000000000000000000000000000000005e
:0a5a9600000000000000001a0000ec
:205aa000000000005081400001043c000000000400000000000003c00008000400000000c1
:095ac000200010000000000000ad
:205ac90000000000051ea00000400c3c4e000001000000000000083c60001001000000006e
:0a5ae900004004000000000000006f
:205af300000000000000000000083c000000000000000000000000000000000008479e0c56
:095b130000000000000008000081
:205b1c00000000000000160000080c3c4e0000000000000000000000005000000085b32409
:0a5b3c0060000000000005000000fa
:205b4600000000000000000000003c010008000400000000000003c200800000005a034014
:095b660000000002a82f5000000d
:205b6f00000000000000000000000c3c5e181000800000000000083c40180000002a5000b2
:0a5b8f0000000000294cc8000000cf
:205b9900000000000000000000003c0100000000000000000000000000000000000f00029e
:095bb900000000003c2051000036
:205bc200000000000000000000000c3c5a0180000000000000000000000000000020f3810c
:0a5be200c000000083c4081e00008c
:205bec00000000000002400000003c000000000000000000000003c000000000000f000049
:095c0c0028000002a82f10a000de
:205c1500000000000000200000000c3c5a000000000000000000083c601800000020f3815d
:0a5c350066c00000294ddd9b000051
:205c3f00000200000000200000003c000000000000000000000003c200000000000f0814f7
:095c5f00000000403c0090a00090
:205c68000000000000000c0000000c3c5e000000000000000000083ce00180000020f3832f
:0a5c88006680000083d408190000b4
:205c9200000000076be0200000003c010100000000000000000003c000000000080f080060
:095cb200000000403c000000006d
:205cbb0000002000d93ed40000000c3c4a818000000000000000083d600180000020f301f1
:0a5cdb004003000083dc000000001d
:205ce500000000000000000000003c010100000000000000000003c000000000000f00008f
:095d050028003000141d0080008c
:205d0e00030000000000000000000c3c4a980000000000000000083cc00000000020f30031
:0a5d2e00000003002bcfc0010000ad
:205d3800004000000000040000003c000010000400000000000003c200080004080f0800c7
:095d5800000010003c20000000d6
:205d6100400600000000002800000c3c4e018001000000000000083de00010010020f580d1
:0a5d81000000040083ce00000010b3
:205d8b0000000000000000000000000400090000000000108000000001001c00000f00002f
:095dab00000000003c00000000b3
:205db400000000000000000000000400180010000000000280000000008000000020f5008c
:0a5dd4000000500083cc01800000a5
:025dde000000c3
:035de00062003f1f
:035de300720080cb
:025de6001100aa
:035de80082000036
:025deb000103b2
:085ded000000000000000000ae
:085df5000000000000000000a6
:085dfd0000000000000000009e
:085e0500000000000000000095
:0261ed000000b0
:0361ef00820080ab
:0261f2000103a7
:0861f4000000000000000000a3
:0861fc0000000000000000009b
:08620400000000000000000092
:08620c0000000000000000008a
:0265f4000000a5
:0265f600110191
:0365f8008200001e
:0265fb0001039a
:0865fd00000000000000000096
:0866050000000000000000008d
:08660d00000000000000000085
:0866150000000000000000007d
:0269fd00000098
:0369ff0082008093
:026a020001038e
:086a040000000000000000008a
:086a0c00000000000000000082
:086a140000000000000000007a
:086a1c00000000000000000072
:026e040000008c
:026e0600110277
:036e080082000005
:026e0b00010381
:086e0d0000000000000000007d
:086e1500000000000000000075
:086e1d0000000000000000006d
:086e2500000000000000000065
:02720d0000007f
:03720f008200807a
:02721200010376
:08721400000000000000000072
:08721c0000000000000000006a
:08722400000000000000000062
:08722c0000000000000000005a
:02761400000074
:0276160011035e
:03761800820000ed
:02761b00010369
:08761d00000000000000000065
:0876250000000000000000005d
:08762d00000000000000000055
:0876350000000000000000004d
:027a1d00000067
:037a1f0082008062
:027a220001035e
:087a240000000000000000005a
:087a2c00000000000000000052
:087a340000000000000000004a
:087a3c00000000000000000042
:027e240000005c
:017e26002239
:027e27000b61ed
:027e2900010650
:00000001FF
